{"abi":[{"type":"fallback","stateMutability":"payable"},{"type":"function","name":"admin","inputs":[],"outputs":[{"name":"","type":"address","internalType":"address"}],"stateMutability":"view"},{"type":"function","name":"claimGovernance","inputs":[],"outputs":[],"stateMutability":"nonpayable"},{"type":"function","name":"governor","inputs":[],"outputs":[{"name":"","type":"address","internalType":"address"}],"stateMutability":"view"},{"type":"function","name":"implementation","inputs":[],"outputs":[{"name":"","type":"address","internalType":"address"}],"stateMutability":"view"},{"type":"function","name":"initialize","inputs":[{"name":"_logic","type":"address","internalType":"address"},{"name":"_initGovernor","type":"address","internalType":"address"},{"name":"_data","type":"bytes","internalType":"bytes"}],"outputs":[],"stateMutability":"payable"},{"type":"function","name":"isGovernor","inputs":[],"outputs":[{"name":"","type":"bool","internalType":"bool"}],"stateMutability":"view"},{"type":"function","name":"transferGovernance","inputs":[{"name":"_newGovernor","type":"address","internalType":"address"}],"outputs":[],"stateMutability":"nonpayable"},{"type":"function","name":"upgradeTo","inputs":[{"name":"_newImplementation","type":"address","internalType":"address"}],"outputs":[],"stateMutability":"nonpayable"},{"type":"function","name":"upgradeToAndCall","inputs":[{"name":"newImplementation","type":"address","internalType":"address"},{"name":"data","type":"bytes","internalType":"bytes"}],"outputs":[],"stateMutability":"payable"},{"type":"event","name":"GovernorshipTransferred","inputs":[{"name":"previousGovernor","type":"address","indexed":true,"internalType":"address"},{"name":"newGovernor","type":"address","indexed":true,"internalType":"address"}],"anonymous":false},{"type":"event","name":"PendingGovernorshipTransfer","inputs":[{"name":"previousGovernor","type":"address","indexed":true,"internalType":"address"},{"name":"newGovernor","type":"address","indexed":true,"internalType":"address"}],"anonymous":false},{"type":"event","name":"Upgraded","inputs":[{"name":"implementation","type":"address","indexed":true,"internalType":"address"}],"anonymous":false}],"bytecode":{"object":"0x6080604052348015600e575f5ffd5b50601633601a565b607e565b6001600160a01b03811660385f5160206109b95f395f51905f525490565b6001600160a01b03167fc7c0c772add429241571afb3805861fb3cfa2af374534088b76cdb4325a87e9a60405160405180910390a35f5160206109b95f395f51905f5255565b61092e8061008b5f395ff3fe608060405260043610610085575f3560e01c80635d36b190116100585780635d36b19014610106578063c7af33521461011a578063cf7a1d771461013e578063d38bfff414610151578063f851a4401461008f57610085565b80630c340a241461008f5780633659cfe6146100c05780634f1ef286146100df5780635c60da1b146100f2575b61008d610170565b005b34801561009a575f5ffd5b506100a361018f565b6040516001600160a01b0390911681526020015b60405180910390f35b3480156100cb575f5ffd5b5061008d6100da366004610728565b6101aa565b61008d6100ed36600461078d565b6101e3565b3480156100fd575f5ffd5b506100a361027b565b348015610111575f5ffd5b5061008d610291565b348015610125575f5ffd5b5061012e610335565b60405190151581526020016100b7565b61008d61014c3660046107dc565b610364565b34801561015c575f5ffd5b5061008d61016b366004610728565b6104c4565b61018d6101885f5160206108b95f395f51905f525490565b610567565b565b5f6101a55f5160206108d95f395f51905f525490565b905090565b6101b2610335565b6101d75760405162461bcd60e51b81526004016101ce90610839565b60405180910390fd5b6101e081610585565b50565b6101eb610335565b6102075760405162461bcd60e51b81526004016101ce90610839565b61021083610585565b5f836001600160a01b0316838360405161022b929190610870565b5f60405180830381855af49150503d805f8114610263576040519150601f19603f3d011682016040523d82523d5f602084013e610268565b606091505b5050905080610275575f5ffd5b50505050565b5f6101a55f5160206108b95f395f51905f525490565b7f44c4d30b2eaad5130ad70c3ba6972730566f3e6359ab83e800d905c61b1c51db546001600160a01b0316336001600160a01b03161461032c5760405162461bcd60e51b815260206004820152603060248201527f4f6e6c79207468652070656e64696e6720476f7665726e6f722063616e20636f60448201526f6d706c6574652074686520636c61696d60801b60648201526084016101ce565b61018d336105c4565b5f61034b5f5160206108d95f395f51905f525490565b6001600160a01b0316336001600160a01b031614905090565b61036c610335565b6103885760405162461bcd60e51b81526004016101ce90610839565b5f61039e5f5160206108b95f395f51905f525490565b6001600160a01b0316146103b0575f5ffd5b6001600160a01b0384166103ff5760405162461bcd60e51b8152602060048201526016602482015275125b5c1b195b595b9d185d1a5bdb881b9bdd081cd95d60521b60448201526064016101ce565b61042a60017f360894a13ba1a3210667c828492db98dca3e2076cc3735a920a3ca505d382bbd61087f565b5f5160206108b95f395f51905f5214610445576104456108a4565b61044e84610623565b80156104bb575f846001600160a01b0316838360405161046f929190610870565b5f60405180830381855af49150503d805f81146104a7576040519150601f19603f3d011682016040523d82523d5f602084013e6104ac565b606091505b50509050806104b9575f5ffd5b505b610275836105c4565b6104cc610335565b6104e85760405162461bcd60e51b81526004016101ce90610839565b610510817f44c4d30b2eaad5130ad70c3ba6972730566f3e6359ab83e800d905c61b1c51db55565b806001600160a01b031661052f5f5160206108d95f395f51905f525490565b6001600160a01b03167fa39cc5eb22d0f34d8beaefee8a3f17cc229c1a1d1ef87a5ad47313487b1c4f0d60405160405180910390a350565b365f5f375f5f365f845af43d5f5f3e808015610581573d5ff35b3d5ffd5b61058e81610623565b6040516001600160a01b038216907fbc7cd75a20ee27fd9adebab32041f755214dbc6bffa90cc0225b39da2e5c2d3b905f90a250565b6001600160a01b03811661061a5760405162461bcd60e51b815260206004820152601a60248201527f4e657720476f7665726e6f72206973206164647265737328302900000000000060448201526064016101ce565b6101e0816106a8565b803b6106975760405162461bcd60e51b815260206004820152603b60248201527f43616e6e6f742073657420612070726f787920696d706c656d656e746174696f60448201527f6e20746f2061206e6f6e2d636f6e74726163742061646472657373000000000060648201526084016101ce565b5f5160206108b95f395f51905f5255565b806001600160a01b03166106c75f5160206108d95f395f51905f525490565b6001600160a01b03167fc7c0c772add429241571afb3805861fb3cfa2af374534088b76cdb4325a87e9a60405160405180910390a35f5160206108d95f395f51905f5255565b80356001600160a01b0381168114610723575f5ffd5b919050565b5f60208284031215610738575f5ffd5b6107418261070d565b9392505050565b5f5f83601f840112610758575f5ffd5b50813567ffffffffffffffff81111561076f575f5ffd5b602083019150836020828501011115610786575f5ffd5b9250929050565b5f5f5f6040848603121561079f575f5ffd5b6107a88461070d565b9250602084013567ffffffffffffffff8111156107c3575f5ffd5b6107cf86828701610748565b9497909650939450505050565b5f5f5f5f606085870312156107ef575f5ffd5b6107f88561070d565b93506108066020860161070d565b9250604085013567ffffffffffffffff811115610821575f5ffd5b61082d87828801610748565b95989497509550505050565b6020808252601a908201527f43616c6c6572206973206e6f742074686520476f7665726e6f72000000000000604082015260600190565b818382375f9101908152919050565b8181038181111561089e57634e487b7160e01b5f52601160045260245ffd5b92915050565b634e487b7160e01b5f52600160045260245ffdfe360894a13ba1a3210667c828492db98dca3e2076cc3735a920a3ca505d382bbc7bea13895fa79d2831e0a9e28edede30099005a50d652d8957cf8a607ee6ca4aa2646970667358221220c56f9711640ef2983ac87a88d50854d1d112f4c38fc3563b6e80d7eb3e9e9cc864736f6c634300081c00337bea13895fa79d2831e0a9e28edede30099005a50d652d8957cf8a607ee6ca4a","linkReferences":{}},"methodIdentifiers":{"admin()":"f851a440","claimGovernance()":"5d36b190","governor()":"0c340a24","implementation()":"5c60da1b","initialize(address,address,bytes)":"cf7a1d77","isGovernor()":"c7af3352","transferGovernance(address)":"d38bfff4","upgradeTo(address)":"3659cfe6","upgradeToAndCall(address,bytes)":"4f1ef286"},"id":3}