{"abi":[{"type":"constructor","inputs":[],"stateMutability":"nonpayable"},{"type":"function","name":"claimGovernance","inputs":[],"outputs":[],"stateMutability":"nonpayable"},{"type":"function","name":"governor","inputs":[],"outputs":[{"name":"","type":"address","internalType":"address"}],"stateMutability":"view"},{"type":"function","name":"isGovernor","inputs":[],"outputs":[{"name":"","type":"bool","internalType":"bool"}],"stateMutability":"view"},{"type":"function","name":"transferGovernance","inputs":[{"name":"_newGovernor","type":"address","internalType":"address"}],"outputs":[],"stateMutability":"nonpayable"},{"type":"event","name":"GovernorshipTransferred","inputs":[{"name":"previousGovernor","type":"address","indexed":true,"internalType":"address"},{"name":"newGovernor","type":"address","indexed":true,"internalType":"address"}],"anonymous":false},{"type":"event","name":"PendingGovernorshipTransfer","inputs":[{"name":"previousGovernor","type":"address","indexed":true,"internalType":"address"},{"name":"newGovernor","type":"address","indexed":true,"internalType":"address"}],"anonymous":false}],"bytecode":{"object":"0x608060405234801561001057600080fd5b506100273360008051602061043f83398151915255565b60008051602061043f833981519152546040516001600160a01b03909116906000907fc7c0c772add429241571afb3805861fb3cfa2af374534088b76cdb4325a87e9a908290a36103c28061007d6000396000f3fe608060405234801561001057600080fd5b506004361061004c5760003560e01c80630c340a24146100515780635d36b19014610076578063c7af335214610080578063d38bfff414610098575b600080fd5b6100596100ab565b6040516001600160a01b0390911681526020015b60405180910390f35b61007e6100c8565b005b610088610173565b604051901515815260200161006d565b61007e6100a636600461033c565b6101a4565b60006100c360008051602061036d8339815191525490565b905090565b7f44c4d30b2eaad5130ad70c3ba6972730566f3e6359ab83e800d905c61b1c51db546001600160a01b0316336001600160a01b0316146101685760405162461bcd60e51b815260206004820152603060248201527f4f6e6c79207468652070656e64696e6720476f7665726e6f722063616e20636f60448201526f6d706c6574652074686520636c61696d60801b60648201526084015b60405180910390fd5b61017133610278565b565b600061018b60008051602061036d8339815191525490565b6001600160a01b0316336001600160a01b031614905090565b6101ac610173565b6101f85760405162461bcd60e51b815260206004820152601a60248201527f43616c6c6572206973206e6f742074686520476f7665726e6f72000000000000604482015260640161015f565b610220817f44c4d30b2eaad5130ad70c3ba6972730566f3e6359ab83e800d905c61b1c51db55565b806001600160a01b031661024060008051602061036d8339815191525490565b6001600160a01b03167fa39cc5eb22d0f34d8beaefee8a3f17cc229c1a1d1ef87a5ad47313487b1c4f0d60405160405180910390a350565b6001600160a01b0381166102ce5760405162461bcd60e51b815260206004820152601a60248201527f4e657720476f7665726e6f722069732061646472657373283029000000000000604482015260640161015f565b806001600160a01b03166102ee60008051602061036d8339815191525490565b6001600160a01b03167fc7c0c772add429241571afb3805861fb3cfa2af374534088b76cdb4325a87e9a60405160405180910390a36103398160008051602061036d83398151915255565b50565b60006020828403121561034e57600080fd5b81356001600160a01b038116811461036557600080fd5b939250505056fe7bea13895fa79d2831e0a9e28edede30099005a50d652d8957cf8a607ee6ca4aa2646970667358221220b1d820bb0a651df2b476c46941db8336084f81a3b583182c4b84a1327d462a5964736f6c634300080700337bea13895fa79d2831e0a9e28edede30099005a50d652d8957cf8a607ee6ca4a","linkReferences":{}},"methodIdentifiers":{"claimGovernance()":"5d36b190","governor()":"0c340a24","isGovernor()":"c7af3352","transferGovernance(address)":"d38bfff4"},"id":1}