{"abi":[{"type":"fallback","stateMutability":"payable"},{"type":"function","name":"admin","inputs":[],"outputs":[{"name":"","type":"address","internalType":"address"}],"stateMutability":"view"},{"type":"function","name":"implementation","inputs":[],"outputs":[{"name":"","type":"address","internalType":"address"}],"stateMutability":"view"},{"type":"function","name":"initialize","inputs":[{"name":"_logic","type":"address","internalType":"address"},{"name":"_initOwner","type":"address","internalType":"address"},{"name":"_data","type":"bytes","internalType":"bytes"}],"outputs":[],"stateMutability":"payable"},{"type":"function","name":"owner","inputs":[],"outputs":[{"name":"","type":"address","internalType":"address"}],"stateMutability":"view"},{"type":"function","name":"setOwner","inputs":[{"name":"newOwner","type":"address","internalType":"address"}],"outputs":[],"stateMutability":"nonpayable"},{"type":"function","name":"upgradeTo","inputs":[{"name":"newImplementation","type":"address","internalType":"address"}],"outputs":[],"stateMutability":"nonpayable"},{"type":"function","name":"upgradeToAndCall","inputs":[{"name":"newImplementation","type":"address","internalType":"address"},{"name":"data","type":"bytes","internalType":"bytes"}],"outputs":[],"stateMutability":"payable"},{"type":"event","name":"AdminChanged","inputs":[{"name":"previousAdmin","type":"address","indexed":false,"internalType":"address"},{"name":"newAdmin","type":"address","indexed":false,"internalType":"address"}],"anonymous":false},{"type":"event","name":"Upgraded","inputs":[{"name":"implementation","type":"address","indexed":true,"internalType":"address"}],"anonymous":false}],"bytecode":{"object":"0x608060405234801561000f575f80fd5b5061003b60017fb53127684a568b3173ae13b9f8a6016e243e63b6e8ee1178d6a717850b5d61046100cd565b5f805160206107d083398151915214610056576100566100f2565b61005f33610064565b610106565b7f7e644d79422f17c01e4894b5f4f588d331ebfa28653d42ae832dc59e38c9798f61009a5f805160206107d08339815191525490565b604080516001600160a01b03928316815291841660208301520160405180910390a15f805160206107d083398151915255565b818103818111156100ec57634e487b7160e01b5f52601160045260245ffd5b92915050565b634e487b7160e01b5f52600160045260245ffd5b6106bd806101135f395ff3fe60806040526004361061006f575f3560e01c80635c60da1b1161004d5780635c60da1b146100df5780638da5cb5b1461010f578063cf7a1d7714610123578063f851a4401461010f5761006f565b806313af40351461008e5780633659cfe6146100ad5780634f1ef286146100cc575b61008c6100875f805160206106688339815191525490565b610136565b005b348015610099575f80fd5b5061008c6100a83660046104ee565b610154565b3480156100b8575f80fd5b5061008c6100c73660046104ee565b610168565b61008c6100da366004610553565b610179565b3480156100ea575f80fd5b506100f36101f5565b6040516001600160a01b03909116815260200160405180910390f35b34801561011a575f80fd5b506100f3610210565b61008c6101313660046105a2565b610226565b365f80375f80365f845af43d5f803e808015610150573d5ff35b3d5ffd5b61015c61031b565b610165816103a3565b50565b61017061031b565b6101658161040c565b61018161031b565b61018a8361040c565b5f836001600160a01b031683836040516101a59291906105ff565b5f60405180830381855af49150503d805f81146101dd576040519150601f19603f3d011682016040523d82523d5f602084013e6101e2565b606091505b50509050806101ef575f80fd5b50505050565b5f61020b5f805160206106688339815191525490565b905090565b5f61020b5f805160206106488339815191525490565b61022e61031b565b5f6102445f805160206106688339815191525490565b6001600160a01b031614610256575f80fd5b61028160017f360894a13ba1a3210667c828492db98dca3e2076cc3735a920a3ca505d382bbd61060e565b5f805160206106688339815191521461029c5761029c610633565b6102a58461040c565b8015610312575f846001600160a01b031683836040516102c69291906105ff565b5f60405180830381855af49150503d805f81146102fe576040519150601f19603f3d011682016040523d82523d5f602084013e610303565b606091505b5050905080610310575f80fd5b505b6101ef836103a3565b5f80516020610648833981519152546001600160a01b0316336001600160a01b0316146103a15760405162461bcd60e51b815260206004820152602960248201527f4f537761703a204f6e6c79206f776e65722063616e2063616c6c207468697320604482015268333ab731ba34b7b71760b91b60648201526084015b60405180910390fd5b565b7f7e644d79422f17c01e4894b5f4f588d331ebfa28653d42ae832dc59e38c9798f6103d95f805160206106488339815191525490565b604080516001600160a01b03928316815291841660208301520160405180910390a15f8051602061064883398151915255565b5f816001600160a01b03163b1161048b5760405162461bcd60e51b815260206004820152603b60248201527f43616e6e6f742073657420612070726f787920696d706c656d656e746174696f60448201527f6e20746f2061206e6f6e2d636f6e7472616374206164647265737300000000006064820152608401610398565b5f805160206106688339815191528181556040516001600160a01b038316907fbc7cd75a20ee27fd9adebab32041f755214dbc6bffa90cc0225b39da2e5c2d3b905f90a25050565b80356001600160a01b03811681146104e9575f80fd5b919050565b5f602082840312156104fe575f80fd5b610507826104d3565b9392505050565b5f8083601f84011261051e575f80fd5b50813567ffffffffffffffff811115610535575f80fd5b60208301915083602082850101111561054c575f80fd5b9250929050565b5f805f60408486031215610565575f80fd5b61056e846104d3565b9250602084013567ffffffffffffffff811115610589575f80fd5b6105958682870161050e565b9497909650939450505050565b5f805f80606085870312156105b5575f80fd5b6105be856104d3565b93506105cc602086016104d3565b9250604085013567ffffffffffffffff8111156105e7575f80fd5b6105f38782880161050e565b95989497509550505050565b818382375f9101908152919050565b8181038181111561062d57634e487b7160e01b5f52601160045260245ffd5b92915050565b634e487b7160e01b5f52600160045260245ffdfeb53127684a568b3173ae13b9f8a6016e243e63b6e8ee1178d6a717850b5d6103360894a13ba1a3210667c828492db98dca3e2076cc3735a920a3ca505d382bbca2646970667358221220b2353f5e71228f71a970495af31ae6cf5a87134769afcf1af00c265e18ceb13364736f6c63430008170033b53127684a568b3173ae13b9f8a6016e243e63b6e8ee1178d6a717850b5d6103","linkReferences":{}},"methodIdentifiers":{"admin()":"f851a440","implementation()":"5c60da1b","initialize(address,address,bytes)":"cf7a1d77","owner()":"8da5cb5b","setOwner(address)":"13af4035","upgradeTo(address)":"3659cfe6","upgradeToAndCall(address,bytes)":"4f1ef286"},"id":1}